{
  "contractName": "MyToken",
  "abi": [
    {
      "inputs": [],
      "stateMutability": "nonpayable",
      "type": "constructor"
    },
    {
      "inputs": [],
      "name": "getBalance",
      "outputs": [
        {
          "internalType": "uint256",
          "name": "",
          "type": "uint256"
        }
      ],
      "stateMutability": "view",
      "type": "function",
      "constant": true
    },
    {
      "inputs": [
        {
          "internalType": "uint256",
          "name": "amount",
          "type": "uint256"
        }
      ],
      "name": "depositBalance",
      "outputs": [],
      "stateMutability": "nonpayable",
      "type": "function"
    },
    {
      "inputs": [
        {
          "internalType": "uint256",
          "name": "amount",
          "type": "uint256"
        }
      ],
      "name": "withdrawBalance",
      "outputs": [],
      "stateMutability": "nonpayable",
      "type": "function"
    }
  ],
  "bytecode": "0x608060405234801561001057600080fd5b5060008055610150806100246000396000f3fe608060405234801561001057600080fd5b50600436106100415760003560e01c806312065fe0146100465780631ec576341461005b578063da76d5cd14610070575b600080fd5b60005460405190815260200160405180910390f35b61006e6100693660046100bc565b610083565b005b61006e61007e3660046100bc565b61009c565b8060008082825461009491906100eb565b909155505050565b6000548111156100ab57600080fd5b806000808282546100949190610103565b6000602082840312156100ce57600080fd5b5035919050565b634e487b7160e01b600052601160045260246000fd5b600082198211156100fe576100fe6100d5565b500190565b600082821015610115576101156100d5565b50039056fea26469706673582212209f0c72bb6c0bd4d69d7a742d49b0e260149d834b5f91c1d66a453a73ae2e6eb564736f6c63430008090033",
  "immutableReferences": {},
  "source": "// SPDX-License-Identifier: MIT\npragma solidity >=0.4.22 <0.9.0;\n\ncontract MyToken {\n    uint256 balance;\n\n    constructor() {\n        balance = 0;\n    }\n\n    function getBalance() public view returns (uint256) {\n        return balance;\n    }\n\n    function depositBalance(uint amount) public {\n        balance += amount;\n    }\n\n    function withdrawBalance(uint amount) public {\n        require(amount <= balance);\n        balance -= amount;\n    }\n}\n",
  "sourcePath": "D:\\Tutorials\\BlockChain\\my_coin_dapp\\sol\\contracts\\MyToken.sol",
  "compiler": {
    "name": "solc",
    "version": "0.8.9+commit.e5eed63a.Emscripten.clang"
  },
  "schemaVersion": "3.4.3",
  "updatedAt": "2021-11-15T10:19:00.833Z",
  "networkType": "ethereum",
  "devdoc": {
    "kind": "dev",
    "methods": {},
    "version": 1
  },
  "userdoc": {
    "kind": "user",
    "methods": {},
    "version": 1
  }
}