{
  "contractName": "TodoList",
  "abi": [
    {
      "inputs": [],
      "stateMutability": "nonpayable",
      "type": "constructor"
    },
    {
      "anonymous": false,
      "inputs": [
        {
          "indexed": false,
          "internalType": "string",
          "name": "task",
          "type": "string"
        },
        {
          "indexed": false,
          "internalType": "uint256",
          "name": "taskNumber",
          "type": "uint256"
        }
      ],
      "name": "TaskCreated",
      "type": "event"
    },
    {
      "inputs": [
        {
          "internalType": "uint256",
          "name": "",
          "type": "uint256"
        }
      ],
      "name": "tasks",
      "outputs": [
        {
          "internalType": "string",
          "name": "taskName",
          "type": "string"
        },
        {
          "internalType": "bool",
          "name": "isCompleted",
          "type": "bool"
        }
      ],
      "stateMutability": "view",
      "type": "function",
      "constant": true
    },
    {
      "inputs": [],
      "name": "getTasksLength",
      "outputs": [
        {
          "internalType": "uint256",
          "name": "",
          "type": "uint256"
        }
      ],
      "stateMutability": "view",
      "type": "function",
      "constant": true
    },
    {
      "inputs": [
        {
          "internalType": "string",
          "name": "_taskName",
          "type": "string"
        }
      ],
      "name": "createTask",
      "outputs": [],
      "stateMutability": "nonpayable",
      "type": "function"
    }
  ],
  "bytecode": "0x608060405234801561001057600080fd5b506040805160808101825260099181019182526815185cdac815195cdd60ba1b60608201529081526001602080830182905260008054928301815580528251805160029093027f290decd9548b62a8d60345a988386fc84ba6bc95484008f6362f93160ef3e563019261008692849201906100a7565b50602091909101516001909101805460ff191691151591909117905561017b565b8280546100b390610140565b90600052602060002090601f0160209004810192826100d5576000855561011b565b82601f106100ee57805160ff191683800117855561011b565b8280016001018555821561011b579182015b8281111561011b578251825591602001919060010190610100565b5061012792915061012b565b5090565b5b80821115610127576000815560010161012c565b600181811c9082168061015457607f821691505b6020821081141561017557634e487b7160e01b600052602260045260246000fd5b50919050565b6104b88061018a6000396000f3fe608060405234801561001057600080fd5b50600436106100415760003560e01c8063111002aa146100465780638d9776721461005b578063c1419a0414610085575b600080fd5b6100596100543660046102c5565b610096565b005b61006e610069366004610376565b610157565b60405161007c9291906103dc565b60405180910390f35b60005460405190815260200161007c565b604080518082019091528181526000602080830182905281546001810183559180528251805160029093027f290decd9548b62a8d60345a988386fc84ba6bc95484008f6362f93160ef3e56301926100f19284920190610216565b50602091909101516001918201805460ff19169115159190911790556000547fed1d390c812a65783a09786b88b832ef75bb16882fbc56eeea9bf61a4c1a8ac791839161013e9190610400565b60405161014c929190610425565b60405180910390a150565b6000818154811061016757600080fd5b906000526020600020906002020160009150905080600001805461018a90610447565b80601f01602080910402602001604051908101604052809291908181526020018280546101b690610447565b80156102035780601f106101d857610100808354040283529160200191610203565b820191906000526020600020905b8154815290600101906020018083116101e657829003601f168201915b5050506001909301549192505060ff1682565b82805461022290610447565b90600052602060002090601f016020900481019282610244576000855561028a565b82601f1061025d57805160ff191683800117855561028a565b8280016001018555821561028a579182015b8281111561028a57825182559160200191906001019061026f565b5061029692915061029a565b5090565b5b80821115610296576000815560010161029b565b634e487b7160e01b600052604160045260246000fd5b6000602082840312156102d757600080fd5b813567ffffffffffffffff808211156102ef57600080fd5b818401915084601f83011261030357600080fd5b813581811115610315576103156102af565b604051601f8201601f19908116603f0116810190838211818310171561033d5761033d6102af565b8160405282815287602084870101111561035657600080fd5b826020860160208301376000928101602001929092525095945050505050565b60006020828403121561038857600080fd5b5035919050565b6000815180845260005b818110156103b557602081850181015186830182015201610399565b818111156103c7576000602083870101525b50601f01601f19169290920160200192915050565b6040815260006103ef604083018561038f565b905082151560208301529392505050565b60008282101561042057634e487b7160e01b600052601160045260246000fd5b500390565b604081526000610438604083018561038f565b90508260208301529392505050565b600181811c9082168061045b57607f821691505b6020821081141561047c57634e487b7160e01b600052602260045260246000fd5b5091905056fea26469706673582212200135c8550b20cfaa8b846b923a76f0b17c1a2d880eff19ba08c91a898e0a023264736f6c63430008090033",
  "immutableReferences": {},
  "source": "// SPDX-License-Identifier: MIT\r\npragma solidity >=0.4.22 <0.9.0;\r\n\r\ncontract TodoList {\r\n    \r\n\r\n    struct Task {\r\n        string taskName;\r\n        bool isCompleted;\r\n    }\r\n\r\n    Task[] public tasks;\r\n\r\n    event TaskCreated(string task, uint taskNumber);\r\n\r\n    constructor() {\r\n        tasks.push(Task(\"Task Test\", true));\r\n        \r\n    }\r\n\r\n    function getTasksLength() view public returns(uint){\r\n        return tasks.length;\r\n    }\r\n\r\n    function createTask(string memory _taskName) public {\r\n        // add task to mapping\r\n        // increment taskCount\r\n        tasks.push(Task(_taskName, false));\r\n\r\n        // emit event\r\n        emit TaskCreated(_taskName, tasks.length - 1);\r\n    }\r\n}\r\n",
  "sourcePath": "D:\\Tutorials\\BlockChain\\todo_dapp\\dapp\\contracts\\TodoList.sol",
  "compiler": {
    "name": "solc",
    "version": "0.8.9+commit.e5eed63a.Emscripten.clang"
  },
  "schemaVersion": "3.4.3",
  "updatedAt": "2021-11-13T19:51:24.711Z",
  "networkType": "ethereum",
  "devdoc": {
    "kind": "dev",
    "methods": {},
    "version": 1
  },
  "userdoc": {
    "kind": "user",
    "methods": {},
    "version": 1
  }
}